{
  "contractName": "Swap",
  "abi": [
    {
      "inputs": [
        {
          "internalType": "contract TokenX",
          "name": "_token",
          "type": "address"
        }
      ],
      "stateMutability": "nonpayable",
      "type": "constructor"
    },
    {
      "anonymous": false,
      "inputs": [
        {
          "indexed": true,
          "internalType": "address",
          "name": "_from",
          "type": "address"
        },
        {
          "indexed": true,
          "internalType": "address",
          "name": "_token",
          "type": "address"
        },
        {
          "indexed": false,
          "internalType": "uint256",
          "name": "_value",
          "type": "uint256"
        },
        {
          "indexed": false,
          "internalType": "uint256",
          "name": "_rate",
          "type": "uint256"
        }
      ],
      "name": "TokensPurchased",
      "type": "event"
    },
    {
      "anonymous": false,
      "inputs": [
        {
          "indexed": true,
          "internalType": "address",
          "name": "_from",
          "type": "address"
        },
        {
          "indexed": true,
          "internalType": "address",
          "name": "_token",
          "type": "address"
        },
        {
          "indexed": false,
          "internalType": "uint256",
          "name": "_value",
          "type": "uint256"
        },
        {
          "indexed": false,
          "internalType": "uint256",
          "name": "_rate",
          "type": "uint256"
        }
      ],
      "name": "TokensSold",
      "type": "event"
    },
    {
      "anonymous": false,
      "inputs": [
        {
          "indexed": true,
          "internalType": "address",
          "name": "_from",
          "type": "address"
        },
        {
          "indexed": false,
          "internalType": "uint256",
          "name": "_value",
          "type": "uint256"
        }
      ],
      "name": "buyFailure",
      "type": "event"
    },
    {
      "inputs": [],
      "name": "name",
      "outputs": [
        {
          "internalType": "string",
          "name": "",
          "type": "string"
        }
      ],
      "stateMutability": "view",
      "type": "function",
      "constant": true
    },
    {
      "inputs": [],
      "name": "rate",
      "outputs": [
        {
          "internalType": "uint256",
          "name": "",
          "type": "uint256"
        }
      ],
      "stateMutability": "view",
      "type": "function",
      "constant": true
    },
    {
      "inputs": [],
      "name": "state",
      "outputs": [
        {
          "internalType": "enum Swap.State",
          "name": "",
          "type": "uint8"
        }
      ],
      "stateMutability": "view",
      "type": "function",
      "constant": true
    },
    {
      "inputs": [
        {
          "internalType": "uint256",
          "name": "",
          "type": "uint256"
        }
      ],
      "name": "stored",
      "outputs": [
        {
          "internalType": "address",
          "name": "",
          "type": "address"
        }
      ],
      "stateMutability": "view",
      "type": "function",
      "constant": true
    },
    {
      "inputs": [],
      "name": "token",
      "outputs": [
        {
          "internalType": "contract TokenX",
          "name": "",
          "type": "address"
        }
      ],
      "stateMutability": "view",
      "type": "function",
      "constant": true
    },
    {
      "stateMutability": "payable",
      "type": "receive",
      "payable": true
    },
    {
      "inputs": [],
      "name": "buyTokens",
      "outputs": [],
      "stateMutability": "payable",
      "type": "function",
      "payable": true
    },
    {
      "inputs": [],
      "name": "getAmount",
      "outputs": [
        {
          "internalType": "uint256",
          "name": "",
          "type": "uint256"
        }
      ],
      "stateMutability": "view",
      "type": "function",
      "constant": true
    },
    {
      "inputs": [
        {
          "internalType": "uint256",
          "name": "_amount",
          "type": "uint256"
        }
      ],
      "name": "sellTokens",
      "outputs": [],
      "stateMutability": "nonpayable",
      "type": "function"
    },
    {
      "inputs": [
        {
          "internalType": "uint256",
          "name": "_amount",
          "type": "uint256"
        }
      ],
      "name": "resetBuy",
      "outputs": [],
      "stateMutability": "nonpayable",
      "type": "function"
    },
    {
      "inputs": [],
      "name": "getBalance",
      "outputs": [
        {
          "internalType": "uint256",
          "name": "",
          "type": "uint256"
        }
      ],
      "stateMutability": "view",
      "type": "function",
      "constant": true
    }
  ],
  "bytecode": "0x60806040526040518060400160405280601181526020017f53776170204c696b65204120544954414e0000000000000000000000000000008152506001908051906020019062000051929190620000d3565b506103e86003553480156200006557600080fd5b50604051620013793803806200137983398181016040528101906200008b919062000201565b80600260006101000a81548173ffffffffffffffffffffffffffffffffffffffff021916908373ffffffffffffffffffffffffffffffffffffffff1602179055505062000298565b828054620000e19062000262565b90600052602060002090601f01602090048101928262000105576000855562000151565b82601f106200012057805160ff191683800117855562000151565b8280016001018555821562000151579182015b828111156200015057825182559160200191906001019062000133565b5b50905062000160919062000164565b5090565b5b808211156200017f57600081600090555060010162000165565b5090565b600080fd5b600073ffffffffffffffffffffffffffffffffffffffff82169050919050565b6000620001b58262000188565b9050919050565b6000620001c982620001a8565b9050919050565b620001db81620001bc565b8114620001e757600080fd5b50565b600081519050620001fb81620001d0565b92915050565b6000602082840312156200021a576200021962000183565b5b60006200022a84828501620001ea565b91505092915050565b7f4e487b7100000000000000000000000000000000000000000000000000000000600052602260045260246000fd5b600060028204905060018216806200027b57607f821691505b6020821081141562000292576200029162000233565b5b50919050565b6110d180620002a86000396000f3fe6080604052600436106100955760003560e01c80638c396222116100595780638c39622214610174578063c19d93fb146101b1578063d0febe4c146101dc578063d321fe29146101e6578063fc0c546a146102115761009c565b806306fdde03146100a157806312065fe0146100cc5780632567bb19146100f75780632c4e722e146101205780636c11bcd31461014b5761009c565b3661009c57005b600080fd5b3480156100ad57600080fd5b506100b661023c565b6040516100c39190610b43565b60405180910390f35b3480156100d857600080fd5b506100e16102ca565b6040516100ee9190610b7e565b60405180910390f35b34801561010357600080fd5b5061011e60048036038101906101199190610bca565b6102d2565b005b34801561012c57600080fd5b506101356105c3565b6040516101429190610b7e565b60405180910390f35b34801561015757600080fd5b50610172600480360381019061016d9190610bca565b6105c9565b005b34801561018057600080fd5b5061019b60048036038101906101969190610bca565b610810565b6040516101a89190610c38565b60405180910390f35b3480156101bd57600080fd5b506101c6610843565b6040516101d39190610cca565b60405180910390f35b6101e4610854565b005b3480156101f257600080fd5b506101fb610a4e565b6040516102089190610b7e565b60405180910390f35b34801561021d57600080fd5b50610226610a58565b6040516102339190610d44565b60405180910390f35b6001805461024990610d8e565b80601f016020809104026020016040519081016040528092919081815260200182805461027590610d8e565b80156102c25780601f10610297576101008083540402835291602001916102c2565b820191906000526020600020905b8154815290600101906020018083116102a557829003601f168201915b505050505081565b600047905090565b600060028111156102e6576102e5610c53565b5b60008054906101000a900460ff16600281111561030657610305610c53565b5b14610346576040517f08c379a000000000000000000000000000000000000000000000000000000000815260040161033d90610e0c565b60405180910390fd5b8060058190555060065442101561059557600554600260009054906101000a900473ffffffffffffffffffffffffffffffffffffffff1673ffffffffffffffffffffffffffffffffffffffff166370a08231336040518263ffffffff1660e01b81526004016103b59190610c38565b602060405180830381865afa1580156103d2573d6000803e3d6000fd5b505050506040513d601f19601f820116820180604052508101906103f69190610e41565b101561040157600080fd5b600061041a600354600554610a7e90919063ffffffff16565b90508047101561042957600080fd5b600260009054906101000a900473ffffffffffffffffffffffffffffffffffffffff1673ffffffffffffffffffffffffffffffffffffffff166323b872dd33306005546040518463ffffffff1660e01b815260040161048a93929190610e6e565b6020604051808303816000875af11580156104a9573d6000803e3d6000fd5b505050506040513d601f19601f820116820180604052508101906104cd9190610edd565b503373ffffffffffffffffffffffffffffffffffffffff166108fc829081150290604051600060405180830381858888f19350505050158015610514573d6000803e3d6000fd5b503373ffffffffffffffffffffffffffffffffffffffff167ff79f15c0ff20d8a8bdcc506c0c99440267711e6f147853124da139d28b460ef260045460405161055d9190610b7e565b60405180910390a260016000806101000a81548160ff0219169083600281111561058a57610589610c53565b5b0217905550506105c0565b60026000806101000a81548160ff021916908360028111156105ba576105b9610c53565b5b02179055505b50565b60035481565b80600260009054906101000a900473ffffffffffffffffffffffffffffffffffffffff1673ffffffffffffffffffffffffffffffffffffffff166370a08231336040518263ffffffff1660e01b81526004016106259190610c38565b602060405180830381865afa158015610642573d6000803e3d6000fd5b505050506040513d601f19601f820116820180604052508101906106669190610e41565b101561067157600080fd5b600061068860035483610a7e90919063ffffffff16565b90508047101561069757600080fd5b600260009054906101000a900473ffffffffffffffffffffffffffffffffffffffff1673ffffffffffffffffffffffffffffffffffffffff166323b872dd3330856040518463ffffffff1660e01b81526004016106f693929190610e6e565b6020604051808303816000875af1158015610715573d6000803e3d6000fd5b505050506040513d601f19601f820116820180604052508101906107399190610edd565b503373ffffffffffffffffffffffffffffffffffffffff166108fc829081150290604051600060405180830381858888f19350505050158015610780573d6000803e3d6000fd5b50600260009054906101000a900473ffffffffffffffffffffffffffffffffffffffff1673ffffffffffffffffffffffffffffffffffffffff163373ffffffffffffffffffffffffffffffffffffffff167f697c42d55a5e1fed3f464ec6f38b32546a0bd368dc8068b065c67566d73f329084600354604051610804929190610f0a565b60405180910390a35050565b60076020528060005260406000206000915054906101000a900473ffffffffffffffffffffffffffffffffffffffff1681565b60008054906101000a900460ff1681565b61086934600354610a9490919063ffffffff16565b60048190555060045460058190555034600881905550600a4261088c9190610f62565b60068190555060008060006101000a81548160ff021916908360028111156108b7576108b6610c53565b5b02179055506000600260009054906101000a900473ffffffffffffffffffffffffffffffffffffffff1673ffffffffffffffffffffffffffffffffffffffff1663a9059cbb336004546040518363ffffffff1660e01b815260040161091d929190610fb8565b6020604051808303816000875af115801561093c573d6000803e3d6000fd5b505050506040513d601f19601f820116820180604052508101906109609190610edd565b905080156109fa57600260009054906101000a900473ffffffffffffffffffffffffffffffffffffffff1673ffffffffffffffffffffffffffffffffffffffff163373ffffffffffffffffffffffffffffffffffffffff167f6faf93231a456e552dbc9961f58d9713ee4f2e69d15f1975b050ef0911053a7b6004546003546040516109ed929190610f0a565b60405180910390a3610a4b565b3373ffffffffffffffffffffffffffffffffffffffff167ff79f15c0ff20d8a8bdcc506c0c99440267711e6f147853124da139d28b460ef2600454604051610a429190610b7e565b60405180910390a25b50565b6000600554905090565b600260009054906101000a900473ffffffffffffffffffffffffffffffffffffffff1681565b60008183610a8c9190611010565b905092915050565b60008183610aa29190611041565b905092915050565b600081519050919050565b600082825260208201905092915050565b60005b83811015610ae4578082015181840152602081019050610ac9565b83811115610af3576000848401525b50505050565b6000601f19601f8301169050919050565b6000610b1582610aaa565b610b1f8185610ab5565b9350610b2f818560208601610ac6565b610b3881610af9565b840191505092915050565b60006020820190508181036000830152610b5d8184610b0a565b905092915050565b6000819050919050565b610b7881610b65565b82525050565b6000602082019050610b936000830184610b6f565b92915050565b600080fd5b610ba781610b65565b8114610bb257600080fd5b50565b600081359050610bc481610b9e565b92915050565b600060208284031215610be057610bdf610b99565b5b6000610bee84828501610bb5565b91505092915050565b600073ffffffffffffffffffffffffffffffffffffffff82169050919050565b6000610c2282610bf7565b9050919050565b610c3281610c17565b82525050565b6000602082019050610c4d6000830184610c29565b92915050565b7f4e487b7100000000000000000000000000000000000000000000000000000000600052602160045260246000fd5b60038110610c9357610c92610c53565b5b50565b6000819050610ca482610c82565b919050565b6000610cb482610c96565b9050919050565b610cc481610ca9565b82525050565b6000602082019050610cdf6000830184610cbb565b92915050565b6000819050919050565b6000610d0a610d05610d0084610bf7565b610ce5565b610bf7565b9050919050565b6000610d1c82610cef565b9050919050565b6000610d2e82610d11565b9050919050565b610d3e81610d23565b82525050565b6000602082019050610d596000830184610d35565b92915050565b7f4e487b7100000000000000000000000000000000000000000000000000000000600052602260045260246000fd5b60006002820490506001821680610da657607f821691505b60208210811415610dba57610db9610d5f565b5b50919050565b7f596f752063616e6e27742077697468647261774d6f6e65790000000000000000600082015250565b6000610df6601883610ab5565b9150610e0182610dc0565b602082019050919050565b60006020820190508181036000830152610e2581610de9565b9050919050565b600081519050610e3b81610b9e565b92915050565b600060208284031215610e5757610e56610b99565b5b6000610e6584828501610e2c565b91505092915050565b6000606082019050610e836000830186610c29565b610e906020830185610c29565b610e9d6040830184610b6f565b949350505050565b60008115159050919050565b610eba81610ea5565b8114610ec557600080fd5b50565b600081519050610ed781610eb1565b92915050565b600060208284031215610ef357610ef2610b99565b5b6000610f0184828501610ec8565b91505092915050565b6000604082019050610f1f6000830185610b6f565b610f2c6020830184610b6f565b9392505050565b7f4e487b7100000000000000000000000000000000000000000000000000000000600052601160045260246000fd5b6000610f6d82610b65565b9150610f7883610b65565b9250827fffffffffffffffffffffffffffffffffffffffffffffffffffffffffffffffff03821115610fad57610fac610f33565b5b828201905092915050565b6000604082019050610fcd6000830185610c29565b610fda6020830184610b6f565b9392505050565b7f4e487b7100000000000000000000000000000000000000000000000000000000600052601260045260246000fd5b600061101b82610b65565b915061102683610b65565b92508261103657611035610fe1565b5b828204905092915050565b600061104c82610b65565b915061105783610b65565b9250817fffffffffffffffffffffffffffffffffffffffffffffffffffffffffffffffff04831182151516156110905761108f610f33565b5b82820290509291505056fea264697066735822122042d4bc519d3c12bdd3cf6aeb91f03a4d2e5184d7b93b61fbe63d9437b39edb2e64736f6c634300080a0033",
  "immutableReferences": {},
  "source": "// SPDX-License-Identifier: MIT\r\n\r\npragma solidity ^0.8.0;\r\n\r\nimport './TokenX.sol';\r\nimport \"./Safemath.sol\";\r\n\r\ncontract Swap {\r\n    \r\n    using SafeMath for uint256;\r\n    \r\n    enum State {Pending,ResetSwap,SwapDone}\r\n    State public state;\r\n    \r\n    string public name = \"Swap Like A TITAN\";\r\n    TokenX public token;\r\n    uint public rate = 1000; //redepmtion rate: tokens to receive for 1 ether\r\n    \r\n    uint tokenAmount;\r\n    uint ammount;\r\n    uint locktime;\r\n    mapping(uint => address) public stored;\r\n    uint store;\r\n    uint256 private constant _TIMELOCK = 10 seconds;\r\n\r\n    constructor (TokenX _token)  {\r\n        token = _token;\r\n    }\r\n\r\n    event TokensPurchased (address indexed _from, address indexed _token, uint256 _value, uint _rate);\r\n    event TokensSold (address indexed _from, address indexed _token, uint256 _value, uint _rate);\r\n    event buyFailure(address indexed _from, uint256 _value);\r\n\r\n    function buyTokens () public payable {\r\n        tokenAmount = rate.mul(msg.value) ; \r\n        ammount = tokenAmount;\r\n        //require that Swap exchange has enough tokens to proceed with swap\r\n        //require(token.balanceOf(address(this)) >= tokenAmount);\r\n        \r\n        //for the reset function\r\n        store = msg.value;\r\n        locktime = block.timestamp + _TIMELOCK;\r\n        state = State.Pending;\r\n        \r\n        //transfer tokens to investor\r\n        //(bool success,) = address(token).call{ value: tokenAmount}(abi.encodeWithSignature(\"transfer(address,uint256)\", \"call transfer\", 123)) ;\r\n        bool success = token.transfer(msg.sender, tokenAmount);\r\n        if (success){\r\n            emit TokensPurchased(msg.sender, address(token), tokenAmount, rate);\r\n        }\r\n        else{\r\n            emit buyFailure(msg.sender, tokenAmount);\r\n        }\r\n\r\n    }\r\n\r\n    function getAmount() public view returns(uint){\r\n        return ammount;\r\n    }\r\n\r\n    function sellTokens(uint _amount) public {\r\n        require(token.balanceOf(msg.sender) >= _amount);\r\n        uint etherAmount = _amount.div(rate);\r\n        require (address(this).balance >= etherAmount);\r\n        token.transferFrom(msg.sender , address(this),  _amount);\r\n        payable(msg.sender).transfer(etherAmount);\r\n        emit TokensSold (msg.sender, address(token), _amount, rate);\r\n    }\r\n    \r\n    \r\n    function resetBuy(uint _amount) public {\r\n        require(state == State.Pending , \"You cann't withdrawMoney\");\r\n        ammount = _amount;\r\n        if (block.timestamp < locktime){\r\n            //sellTokens(ammount);\r\n            require(token.balanceOf(msg.sender) >= ammount);\r\n            uint etherAmount = ammount.div(rate);\r\n            require (address(this).balance >= etherAmount);\r\n            token.transferFrom(msg.sender , address(this),  ammount);\r\n            payable(msg.sender).transfer(etherAmount);\r\n            emit buyFailure(msg.sender, tokenAmount);\r\n            state = State.ResetSwap;\r\n            \r\n        }else{\r\n            state = State.SwapDone;\r\n        }\r\n    }\r\n\r\n    function getBalance() public view returns(uint) {\r\n        return address(this).balance;\r\n    }\r\n\r\n    receive() external payable{\r\n        //i should have done it for owner only \r\n    }\r\n    \r\n}",
  "sourcePath": "C:\\Users\\Chris Lytrokapis\\Desktop\\Dev\\Projects\\SwapperMaybe\\contracts\\Swap.sol",
  "compiler": {
    "name": "solc",
    "version": "0.8.10+commit.fc410830.Emscripten.clang"
  },
  "schemaVersion": "3.4.3",
  "updatedAt": "2021-11-25T20:08:14.721Z",
  "networkType": "ethereum",
  "devdoc": {
    "kind": "dev",
    "methods": {},
    "version": 1
  },
  "userdoc": {
    "kind": "user",
    "methods": {},
    "version": 1
  }
}